{
  "contractName": "ElonCoinWithPresale",
  "abi": [
    {
      "inputs": [
        {
          "internalType": "address",
          "name": "_tokenBUSD",
          "type": "address"
        },
        {
          "internalType": "uint8",
          "name": "decimal_",
          "type": "uint8"
        }
      ],
      "stateMutability": "nonpayable",
      "type": "constructor"
    },
    {
      "anonymous": false,
      "inputs": [
        {
          "indexed": true,
          "internalType": "address",
          "name": "owner",
          "type": "address"
        },
        {
          "indexed": true,
          "internalType": "address",
          "name": "spender",
          "type": "address"
        },
        {
          "indexed": false,
          "internalType": "uint256",
          "name": "value",
          "type": "uint256"
        }
      ],
      "name": "Approval",
      "type": "event"
    },
    {
      "anonymous": false,
      "inputs": [
        {
          "indexed": true,
          "internalType": "address",
          "name": "previousOwner",
          "type": "address"
        },
        {
          "indexed": true,
          "internalType": "address",
          "name": "newOwner",
          "type": "address"
        }
      ],
      "name": "OwnershipTransferred",
      "type": "event"
    },
    {
      "anonymous": false,
      "inputs": [
        {
          "indexed": true,
          "internalType": "address",
          "name": "purchaser",
          "type": "address"
        },
        {
          "indexed": true,
          "internalType": "address",
          "name": "beneficiary",
          "type": "address"
        },
        {
          "indexed": false,
          "internalType": "uint256",
          "name": "value",
          "type": "uint256"
        },
        {
          "indexed": false,
          "internalType": "uint256",
          "name": "amount",
          "type": "uint256"
        }
      ],
      "name": "TokenPurchase",
      "type": "event"
    },
    {
      "anonymous": false,
      "inputs": [
        {
          "indexed": true,
          "internalType": "address",
          "name": "from",
          "type": "address"
        },
        {
          "indexed": true,
          "internalType": "address",
          "name": "to",
          "type": "address"
        },
        {
          "indexed": false,
          "internalType": "uint256",
          "name": "value",
          "type": "uint256"
        }
      ],
      "name": "Transfer",
      "type": "event"
    },
    {
      "inputs": [
        {
          "internalType": "address",
          "name": "owner",
          "type": "address"
        },
        {
          "internalType": "address",
          "name": "spender",
          "type": "address"
        }
      ],
      "name": "allowance",
      "outputs": [
        {
          "internalType": "uint256",
          "name": "",
          "type": "uint256"
        }
      ],
      "stateMutability": "view",
      "type": "function",
      "constant": true
    },
    {
      "inputs": [
        {
          "internalType": "address",
          "name": "spender",
          "type": "address"
        },
        {
          "internalType": "uint256",
          "name": "amount",
          "type": "uint256"
        }
      ],
      "name": "approve",
      "outputs": [
        {
          "internalType": "bool",
          "name": "",
          "type": "bool"
        }
      ],
      "stateMutability": "nonpayable",
      "type": "function"
    },
    {
      "inputs": [
        {
          "internalType": "address",
          "name": "account",
          "type": "address"
        }
      ],
      "name": "balanceOf",
      "outputs": [
        {
          "internalType": "uint256",
          "name": "",
          "type": "uint256"
        }
      ],
      "stateMutability": "view",
      "type": "function",
      "constant": true
    },
    {
      "inputs": [],
      "name": "busdRaised",
      "outputs": [
        {
          "internalType": "uint256",
          "name": "",
          "type": "uint256"
        }
      ],
      "stateMutability": "view",
      "type": "function",
      "constant": true
    },
    {
      "inputs": [],
      "name": "cap",
      "outputs": [
        {
          "internalType": "uint256",
          "name": "",
          "type": "uint256"
        }
      ],
      "stateMutability": "view",
      "type": "function",
      "constant": true
    },
    {
      "inputs": [
        {
          "internalType": "address",
          "name": "",
          "type": "address"
        }
      ],
      "name": "contributions",
      "outputs": [
        {
          "internalType": "uint256",
          "name": "",
          "type": "uint256"
        }
      ],
      "stateMutability": "view",
      "type": "function",
      "constant": true
    },
    {
      "inputs": [],
      "name": "decimals",
      "outputs": [
        {
          "internalType": "uint8",
          "name": "",
          "type": "uint8"
        }
      ],
      "stateMutability": "view",
      "type": "function",
      "constant": true
    },
    {
      "inputs": [
        {
          "internalType": "address",
          "name": "spender",
          "type": "address"
        },
        {
          "internalType": "uint256",
          "name": "subtractedValue",
          "type": "uint256"
        }
      ],
      "name": "decreaseAllowance",
      "outputs": [
        {
          "internalType": "bool",
          "name": "",
          "type": "bool"
        }
      ],
      "stateMutability": "nonpayable",
      "type": "function"
    },
    {
      "inputs": [
        {
          "internalType": "address",
          "name": "spender",
          "type": "address"
        },
        {
          "internalType": "uint256",
          "name": "addedValue",
          "type": "uint256"
        }
      ],
      "name": "increaseAllowance",
      "outputs": [
        {
          "internalType": "bool",
          "name": "",
          "type": "bool"
        }
      ],
      "stateMutability": "nonpayable",
      "type": "function"
    },
    {
      "inputs": [],
      "name": "investorMinCap",
      "outputs": [
        {
          "internalType": "uint256",
          "name": "",
          "type": "uint256"
        }
      ],
      "stateMutability": "view",
      "type": "function",
      "constant": true
    },
    {
      "inputs": [],
      "name": "isOngoing",
      "outputs": [
        {
          "internalType": "bool",
          "name": "",
          "type": "bool"
        }
      ],
      "stateMutability": "view",
      "type": "function",
      "constant": true
    },
    {
      "inputs": [],
      "name": "name",
      "outputs": [
        {
          "internalType": "string",
          "name": "",
          "type": "string"
        }
      ],
      "stateMutability": "view",
      "type": "function",
      "constant": true
    },
    {
      "inputs": [],
      "name": "owner",
      "outputs": [
        {
          "internalType": "address",
          "name": "",
          "type": "address"
        }
      ],
      "stateMutability": "view",
      "type": "function",
      "constant": true
    },
    {
      "inputs": [],
      "name": "presaleCap",
      "outputs": [
        {
          "internalType": "uint256",
          "name": "",
          "type": "uint256"
        }
      ],
      "stateMutability": "view",
      "type": "function",
      "constant": true
    },
    {
      "inputs": [],
      "name": "rate",
      "outputs": [
        {
          "internalType": "uint256",
          "name": "",
          "type": "uint256"
        }
      ],
      "stateMutability": "view",
      "type": "function",
      "constant": true
    },
    {
      "inputs": [],
      "name": "renounceOwnership",
      "outputs": [],
      "stateMutability": "nonpayable",
      "type": "function"
    },
    {
      "inputs": [],
      "name": "symbol",
      "outputs": [
        {
          "internalType": "string",
          "name": "",
          "type": "string"
        }
      ],
      "stateMutability": "view",
      "type": "function",
      "constant": true
    },
    {
      "inputs": [],
      "name": "tokenBUSD",
      "outputs": [
        {
          "internalType": "contract IERC20",
          "name": "",
          "type": "address"
        }
      ],
      "stateMutability": "view",
      "type": "function",
      "constant": true
    },
    {
      "inputs": [],
      "name": "totalDividend",
      "outputs": [
        {
          "internalType": "uint256",
          "name": "",
          "type": "uint256"
        }
      ],
      "stateMutability": "view",
      "type": "function",
      "constant": true
    },
    {
      "inputs": [],
      "name": "totalSupply",
      "outputs": [
        {
          "internalType": "uint256",
          "name": "",
          "type": "uint256"
        }
      ],
      "stateMutability": "view",
      "type": "function",
      "constant": true
    },
    {
      "inputs": [
        {
          "internalType": "address",
          "name": "sender",
          "type": "address"
        },
        {
          "internalType": "address",
          "name": "recipient",
          "type": "address"
        },
        {
          "internalType": "uint256",
          "name": "amount",
          "type": "uint256"
        }
      ],
      "name": "transferFrom",
      "outputs": [
        {
          "internalType": "bool",
          "name": "",
          "type": "bool"
        }
      ],
      "stateMutability": "nonpayable",
      "type": "function"
    },
    {
      "inputs": [
        {
          "internalType": "address",
          "name": "newOwner",
          "type": "address"
        }
      ],
      "name": "transferOwnership",
      "outputs": [],
      "stateMutability": "nonpayable",
      "type": "function"
    },
    {
      "inputs": [
        {
          "internalType": "address",
          "name": "",
          "type": "address"
        }
      ],
      "name": "userLastDividened",
      "outputs": [
        {
          "internalType": "uint256",
          "name": "",
          "type": "uint256"
        }
      ],
      "stateMutability": "view",
      "type": "function",
      "constant": true
    },
    {
      "inputs": [],
      "name": "wallet",
      "outputs": [
        {
          "internalType": "address",
          "name": "",
          "type": "address"
        }
      ],
      "stateMutability": "view",
      "type": "function",
      "constant": true
    },
    {
      "stateMutability": "payable",
      "type": "receive",
      "payable": true
    },
    {
      "inputs": [
        {
          "internalType": "uint256",
          "name": "amount",
          "type": "uint256"
        }
      ],
      "name": "burn",
      "outputs": [],
      "stateMutability": "nonpayable",
      "type": "function"
    },
    {
      "inputs": [
        {
          "internalType": "address",
          "name": "account",
          "type": "address"
        },
        {
          "internalType": "uint256",
          "name": "amount",
          "type": "uint256"
        }
      ],
      "name": "burnFrom",
      "outputs": [],
      "stateMutability": "nonpayable",
      "type": "function"
    },
    {
      "inputs": [
        {
          "internalType": "address",
          "name": "recipient",
          "type": "address"
        },
        {
          "internalType": "uint256",
          "name": "amount",
          "type": "uint256"
        }
      ],
      "name": "transfer",
      "outputs": [
        {
          "internalType": "bool",
          "name": "",
          "type": "bool"
        }
      ],
      "stateMutability": "nonpayable",
      "type": "function"
    },
    {
      "inputs": [
        {
          "internalType": "uint256",
          "name": "amount",
          "type": "uint256"
        }
      ],
      "name": "mint",
      "outputs": [],
      "stateMutability": "nonpayable",
      "type": "function"
    },
    {
      "inputs": [],
      "name": "capReached",
      "outputs": [
        {
          "internalType": "bool",
          "name": "",
          "type": "bool"
        }
      ],
      "stateMutability": "view",
      "type": "function",
      "constant": true
    },
    {
      "inputs": [
        {
          "internalType": "address",
          "name": "_beneficiary",
          "type": "address"
        }
      ],
      "name": "getUserContribution",
      "outputs": [
        {
          "internalType": "uint256",
          "name": "",
          "type": "uint256"
        }
      ],
      "stateMutability": "view",
      "type": "function",
      "constant": true
    },
    {
      "inputs": [],
      "name": "endPresale",
      "outputs": [],
      "stateMutability": "nonpayable",
      "type": "function"
    },
    {
      "inputs": [
        {
          "internalType": "address",
          "name": "_beneficiary",
          "type": "address"
        },
        {
          "internalType": "uint256",
          "name": "_busdAmount",
          "type": "uint256"
        }
      ],
      "name": "buyTokens",
      "outputs": [],
      "stateMutability": "nonpayable",
      "type": "function"
    },
    {
      "inputs": [],
      "name": "claimDividend",
      "outputs": [
        {
          "internalType": "bool",
          "name": "",
          "type": "bool"
        }
      ],
      "stateMutability": "nonpayable",
      "type": "function"
    },
    {
      "inputs": [
        {
          "internalType": "uint256",
          "name": "_busdAmount",
          "type": "uint256"
        }
      ],
      "name": "busdToToken",
      "outputs": [
        {
          "internalType": "uint256",
          "name": "",
          "type": "uint256"
        }
      ],
      "stateMutability": "view",
      "type": "function",
      "constant": true
    }
  ],
  "bytecode": "0x60806040526001600c60006101000a81548160ff0219169083151502179055503480156200002c57600080fd5b50604051620039e1380380620039e1833981810160405260408110156200005257600080fd5b8101908080519060200190929190805190602001909291905050508060ff16600a0a620186a0026040518060400160405280600881526020017f456c6f6e436f696e0000000000000000000000000000000000000000000000008152506040518060400160405280600481526020017f454c4f4e000000000000000000000000000000000000000000000000000000008152506000620000f76200053660201b60201c565b9050806000806101000a81548173ffffffffffffffffffffffffffffffffffffffff021916908373ffffffffffffffffffffffffffffffffffffffff1602179055508073ffffffffffffffffffffffffffffffffffffffff16600073ffffffffffffffffffffffffffffffffffffffff167f8be0079c531659141344cd1fd0a4f28419497f9722a3daafe3b4186f6b6457e060405160405180910390a3508160049080519060200190620001ad92919062000a13565b508060059080519060200190620001c692919062000a13565b506012600660006101000a81548160ff021916908360ff1602179055505050600081116200025c576040517f08c379a00000000000000000000000000000000000000000000000000000000081526004018080602001828103825260158152602001807f45524332304361707065643a206361702069732030000000000000000000000081525060200191505060405180910390fd5b8060078190555050600073ffffffffffffffffffffffffffffffffffffffff168273ffffffffffffffffffffffffffffffffffffffff16141562000308576040517f08c379a000000000000000000000000000000000000000000000000000000000815260040180806020018281038252600c8152602001807f5a65726f2061646472657373000000000000000000000000000000000000000081525060200191505060405180910390fd5b62000319816200053e60201b60201c565b33600960006101000a81548173ffffffffffffffffffffffffffffffffffffffff021916908373ffffffffffffffffffffffffffffffffffffffff16021790555081600860006101000a81548173ffffffffffffffffffffffffffffffffffffffff021916908373ffffffffffffffffffffffffffffffffffffffff1602179055508173ffffffffffffffffffffffffffffffffffffffff1663313ce5676040518163ffffffff1660e01b815260040160206040518083038186803b158015620003e257600080fd5b505afa158015620003f7573d6000803e3d6000fd5b505050506040513d60208110156200040e57600080fd5b810190808051906020019092919050505060ff16600a0a6201388002600d819055508173ffffffffffffffffffffffffffffffffffffffff1663313ce5676040518163ffffffff1660e01b815260040160206040518083038186803b1580156200047757600080fd5b505afa1580156200048c573d6000803e3d6000fd5b505050506040513d6020811015620004a357600080fd5b810190808051906020019092919050505060ff16600a0a600402600e819055508060ff16600a0a600a81905550620005146014620005006064620004ec6200055c60201b60201c565b6200056660201b6200207d1790919060201c565b620005f160201b620021061790919060201c565b6012819055506200052e306012546200067c60201b60201c565b505062000ac2565b600033905090565b80600660006101000a81548160ff021916908360ff16021790555050565b6000600754905090565b6000808211620005de576040517f08c379a000000000000000000000000000000000000000000000000000000000815260040180806020018281038252601a8152602001807f536166654d6174683a206469766973696f6e206279207a65726f00000000000081525060200191505060405180910390fd5b818381620005e857fe5b04905092915050565b60008083141562000606576000905062000676565b60008284029050828482816200061857fe5b041462000671576040517f08c379a0000000000000000000000000000000000000000000000000000000008152600401808060200182810382526021815260200180620039c06021913960400191505060405180910390fd5b809150505b92915050565b600073ffffffffffffffffffffffffffffffffffffffff168273ffffffffffffffffffffffffffffffffffffffff16141562000720576040517f08c379a000000000000000000000000000000000000000000000000000000000815260040180806020018281038252601f8152602001807f45524332303a206d696e7420746f20746865207a65726f20616464726573730081525060200191505060405180910390fd5b62000734600083836200085c60201b60201c565b62000750816003546200087960201b6200218c1790919060201c565b600381905550620007af81600160008573ffffffffffffffffffffffffffffffffffffffff1673ffffffffffffffffffffffffffffffffffffffff168152602001908152602001600020546200087960201b6200218c1790919060201c565b600160008473ffffffffffffffffffffffffffffffffffffffff1673ffffffffffffffffffffffffffffffffffffffff168152602001908152602001600020819055508173ffffffffffffffffffffffffffffffffffffffff16600073ffffffffffffffffffffffffffffffffffffffff167fddf252ad1be2c89b69c2b068fc378daa952ba7f163c4a11628f55a4df523b3ef836040518082815260200191505060405180910390a35050565b620008748383836200090260201b620022141760201c565b505050565b600080828401905083811015620008f8576040517f08c379a000000000000000000000000000000000000000000000000000000000815260040180806020018281038252601b8152602001807f536166654d6174683a206164646974696f6e206f766572666c6f77000000000081525060200191505060405180910390fd5b8091505092915050565b6200091a83838362000a0460201b620022f01760201c565b600073ffffffffffffffffffffffffffffffffffffffff168373ffffffffffffffffffffffffffffffffffffffff161415620009ff57620009606200055c60201b60201c565b62000989826200097562000a0960201b60201c565b6200087960201b6200218c1790919060201c565b1115620009fe576040517f08c379a00000000000000000000000000000000000000000000000000000000081526004018080602001828103825260198152602001807f45524332304361707065643a206361702065786365656465640000000000000081525060200191505060405180910390fd5b5b505050565b505050565b6000600354905090565b828054600181600116156101000203166002900490600052602060002090601f016020900481019282601f1062000a5657805160ff191683800117855562000a87565b8280016001018555821562000a87579182015b8281111562000a8657825182559160200191906001019062000a69565b5b50905062000a96919062000a9a565b5090565b62000abf91905b8082111562000abb57600081600090555060010162000aa1565b5090565b90565b612eee8062000ad26000396000f3fe6080604052600436106101fd5760003560e01c8063521eb2731161010d578063a0712d68116100a0578063b25d7f541161006f578063b25d7f5414610aff578063bb8b2b4714610b2a578063dd62ed3e14610b8f578063f0fc6bca14610c14578063f2fde38b14610c435761020d565b8063a0712d68146109c7578063a43be57b14610a02578063a457c2d714610a19578063a9059cbb14610a8c5761020d565b8063731f04a3116100dc578063731f04a31461085a57806379cc6790146108855780638da5cb5b146108e057806395d89b41146109375761020d565b8063521eb2731461075c57806363d5502f146107b357806370a08231146107de578063715018a6146108435761020d565b8063355274ea1161019057806342e94c901161015f57806342e94c90146105e957806344118ce11461064e5780634b6acafb1461069d5780634f935945146106c8578063511d09cf146106f75761020d565b8063355274ea146104e1578063395093511461050c5780633e0881a91461057f57806342966c68146105ae5761020d565b8063213ef7f7116101cc578063213ef7f71461039b57806323b872dd146103f25780632c4e722e14610485578063313ce567146104b05761020d565b806306fdde03146102125780630752881a146102a2578063095ea7b3146102fd57806318160ddd146103705761020d565b3661020d5761020a610c94565b50005b600080fd5b34801561021e57600080fd5b50610227610ea0565b6040518080602001828103825283818151815260200191508051906020019080838360005b8381101561026757808201518184015260208101905061024c565b50505050905090810190601f1680156102945780820380516001836020036101000a031916815260200191505b509250505060405180910390f35b3480156102ae57600080fd5b506102fb600480360360408110156102c557600080fd5b81019080803573ffffffffffffffffffffffffffffffffffffffff16906020019092919080359060200190929190505050610f42565b005b34801561030957600080fd5b506103566004803603604081101561032057600080fd5b81019080803573ffffffffffffffffffffffffffffffffffffffff169060200190929190803590602001909291905050506113cf565b604051808215151515815260200191505060405180910390f35b34801561037c57600080fd5b506103856113ed565b6040518082815260200191505060405180910390f35b3480156103a757600080fd5b506103b06113f7565b604051808273ffffffffffffffffffffffffffffffffffffffff1673ffffffffffffffffffffffffffffffffffffffff16815260200191505060405180910390f35b3480156103fe57600080fd5b5061046b6004803603606081101561041557600080fd5b81019080803573ffffffffffffffffffffffffffffffffffffffff169060200190929190803573ffffffffffffffffffffffffffffffffffffffff1690602001909291908035906020019092919050505061141d565b604051808215151515815260200191505060405180910390f35b34801561049157600080fd5b5061049a6114f6565b6040518082815260200191505060405180910390f35b3480156104bc57600080fd5b506104c56114fc565b604051808260ff1660ff16815260200191505060405180910390f35b3480156104ed57600080fd5b506104f6611513565b6040518082815260200191505060405180910390f35b34801561051857600080fd5b506105656004803603604081101561052f57600080fd5b81019080803573ffffffffffffffffffffffffffffffffffffffff1690602001909291908035906020019092919050505061151d565b604051808215151515815260200191505060405180910390f35b34801561058b57600080fd5b506105946115d0565b604051808215151515815260200191505060405180910390f35b3480156105ba57600080fd5b506105e7600480360360208110156105d157600080fd5b81019080803590602001909291905050506115e3565b005b3480156105f557600080fd5b506106386004803603602081101561060c57600080fd5b81019080803573ffffffffffffffffffffffffffffffffffffffff16906020019092919050505061164b565b6040518082815260200191505060405180910390f35b34801561065a57600080fd5b506106876004803603602081101561067157600080fd5b8101908080359060200190929190505050611663565b6040518082815260200191505060405180910390f35b3480156106a957600080fd5b506106b2611695565b6040518082815260200191505060405180910390f35b3480156106d457600080fd5b506106dd61169b565b604051808215151515815260200191505060405180910390f35b34801561070357600080fd5b506107466004803603602081101561071a57600080fd5b81019080803573ffffffffffffffffffffffffffffffffffffffff1690602001909291905050506116aa565b6040518082815260200191505060405180910390f35b34801561076857600080fd5b506107716116c2565b604051808273ffffffffffffffffffffffffffffffffffffffff1673ffffffffffffffffffffffffffffffffffffffff16815260200191505060405180910390f35b3480156107bf57600080fd5b506107c86116e8565b6040518082815260200191505060405180910390f35b3480156107ea57600080fd5b5061082d6004803603602081101561080157600080fd5b81019080803573ffffffffffffffffffffffffffffffffffffffff1690602001909291905050506116ee565b6040518082815260200191505060405180910390f35b34801561084f57600080fd5b50610858611737565b005b34801561086657600080fd5b5061086f6118a5565b6040518082815260200191505060405180910390f35b34801561089157600080fd5b506108de600480360360408110156108a857600080fd5b81019080803573ffffffffffffffffffffffffffffffffffffffff169060200190929190803590602001909291905050506118ab565b005b3480156108ec57600080fd5b506108f5611966565b604051808273ffffffffffffffffffffffffffffffffffffffff1673ffffffffffffffffffffffffffffffffffffffff16815260200191505060405180910390f35b34801561094357600080fd5b5061094c61198f565b6040518080602001828103825283818151815260200191508051906020019080838360005b8381101561098c578082015181840152602081019050610971565b50505050905090810190601f1680156109b95780820380516001836020036101000a031916815260200191505b509250505060405180910390f35b3480156109d357600080fd5b50610a00600480360360208110156109ea57600080fd5b8101908080359060200190929190505050611a31565b005b348015610a0e57600080fd5b50610a17611b76565b005b348015610a2557600080fd5b50610a7260048036036040811015610a3c57600080fd5b81019080803573ffffffffffffffffffffffffffffffffffffffff16906020019092919080359060200190929190505050611c42565b604051808215151515815260200191505060405180910390f35b348015610a9857600080fd5b50610ae560048036036040811015610aaf57600080fd5b81019080803573ffffffffffffffffffffffffffffffffffffffff16906020019092919080359060200190929190505050611d0f565b604051808215151515815260200191505060405180910390f35b348015610b0b57600080fd5b50610b14611db4565b6040518082815260200191505060405180910390f35b348015610b3657600080fd5b50610b7960048036036020811015610b4d57600080fd5b81019080803573ffffffffffffffffffffffffffffffffffffffff169060200190929190505050611dba565b6040518082815260200191505060405180910390f35b348015610b9b57600080fd5b50610bfe60048036036040811015610bb257600080fd5b81019080803573ffffffffffffffffffffffffffffffffffffffff169060200190929190803573ffffffffffffffffffffffffffffffffffffffff169060200190929190505050611e03565b6040518082815260200191505060405180910390f35b348015610c2057600080fd5b50610c29610c94565b604051808215151515815260200191505060405180910390f35b348015610c4f57600080fd5b50610c9260048036036020811015610c6657600080fd5b81019080803573ffffffffffffffffffffffffffffffffffffffff169060200190929190505050611e8a565b005b6000803390506000610ca5826116ee565b90506000610cfd601060008573ffffffffffffffffffffffffffffffffffffffff1673ffffffffffffffffffffffffffffffffffffffff168152602001908152602001600020546011546122f590919063ffffffff16565b905060008211610d75576040517f08c379a00000000000000000000000000000000000000000000000000000000081526004018080602001828103825260148152602001807f4f6e6c7920686f6c6465727320616c6c6f77656400000000000000000000000081525060200191505060405180910390fd5b60008111610deb576040517f08c379a00000000000000000000000000000000000000000000000000000000081526004018080602001828103825260148152602001807f4e6f20746f6b656e20696e2074686520706f6f6c00000000000000000000000081525060200191505060405180910390fd5b6000610e1d601154610e0f601254610e016113ed565b6122f590919063ffffffff16565b6122f590919063ffffffff16565b90506000610e4683610e38848761207d90919063ffffffff16565b61210690919063ffffffff16565b9050610e523382612378565b601154601060008773ffffffffffffffffffffffffffffffffffffffff1673ffffffffffffffffffffffffffffffffffffffff16815260200190815260200160002081905550505050505090565b606060048054600181600116156101000203166002900480601f016020809104026020016040519081016040528092919081815260200182805460018160011615610100020316600290048015610f385780601f10610f0d57610100808354040283529160200191610f38565b820191906000526020600020905b815481529060010190602001808311610f1b57829003601f168201915b5050505050905090565b600c60009054906101000a900460ff16610fc4576040517f08c379a00000000000000000000000000000000000000000000000000000000081526004018080602001828103825260118152602001807f50726573616c652068617320656e64656400000000000000000000000000000081525060200191505060405180910390fd5b600073ffffffffffffffffffffffffffffffffffffffff168273ffffffffffffffffffffffffffffffffffffffff161415611067576040517f08c379a000000000000000000000000000000000000000000000000000000000815260040180806020018281038252600c8152602001807f5a65726f2041646472657373000000000000000000000000000000000000000081525060200191505060405180910390fd5b600d5461107f82600b5461218c90919063ffffffff16565b11156110f3576040517f08c379a000000000000000000000000000000000000000000000000000000000815260040180806020018281038252600c8152602001807f436170206578636565646564000000000000000000000000000000000000000081525060200191505060405180910390fd5b6000600f60008473ffffffffffffffffffffffffffffffffffffffff1673ffffffffffffffffffffffffffffffffffffffff168152602001908152602001600020549050600061114c838361218c90919063ffffffff16565b9050600e548110156111a9576040517f08c379a0000000000000000000000000000000000000000000000000000000008152600401808060200182810382526042815260200180612e526042913960600191505060405180910390fd5b80600f60008673ffffffffffffffffffffffffffffffffffffffff1673ffffffffffffffffffffffffffffffffffffffff1681526020019081526020016000208190555060006111f884611663565b905061120f84600b5461218c90919063ffffffff16565b600b81905550611220308683612541565b8473ffffffffffffffffffffffffffffffffffffffff163373ffffffffffffffffffffffffffffffffffffffff167f623b3804fa71d67900d064613da8f94b9617215ee90799290593e1745087ad188684604051808381526020018281526020019250505060405180910390a3600860009054906101000a900473ffffffffffffffffffffffffffffffffffffffff1673ffffffffffffffffffffffffffffffffffffffff166323b872dd33600960009054906101000a900473ffffffffffffffffffffffffffffffffffffffff16876040518463ffffffff1660e01b8152600401808473ffffffffffffffffffffffffffffffffffffffff1673ffffffffffffffffffffffffffffffffffffffff1681526020018373ffffffffffffffffffffffffffffffffffffffff1673ffffffffffffffffffffffffffffffffffffffff1681526020018281526020019350505050602060405180830381600087803b15801561138c57600080fd5b505af11580156113a0573d6000803e3d6000fd5b505050506040513d60208110156113b657600080fd5b8101908080519060200190929190505050505050505050565b60006113e36113dc612806565b848461280e565b6001905092915050565b6000600354905090565b600860009054906101000a900473ffffffffffffffffffffffffffffffffffffffff1681565b600061142a848484612541565b6114eb84611436612806565b6114e685604051806060016040528060288152602001612d9c60289139600260008b73ffffffffffffffffffffffffffffffffffffffff1673ffffffffffffffffffffffffffffffffffffffff168152602001908152602001600020600061149c612806565b73ffffffffffffffffffffffffffffffffffffffff1673ffffffffffffffffffffffffffffffffffffffff16815260200190815260200160002054612a059092919063ffffffff16565b61280e565b600190509392505050565b600a5481565b6000600660009054906101000a900460ff16905090565b6000600754905090565b60006115c661152a612806565b846115c1856002600061153b612806565b73ffffffffffffffffffffffffffffffffffffffff1673ffffffffffffffffffffffffffffffffffffffff16815260200190815260200160002060008973ffffffffffffffffffffffffffffffffffffffff1673ffffffffffffffffffffffffffffffffffffffff1681526020019081526020016000205461218c90919063ffffffff16565b61280e565b6001905092915050565b600c60009054906101000a900460ff1681565b600061160c60056115fe60648561207d90919063ffffffff16565b61210690919063ffffffff16565b90506116238160115461218c90919063ffffffff16565b60118190555061163c81836122f590919063ffffffff16565b915061164782612abf565b5050565b600f6020528060005260406000206000915090505481565b600061168e600a54611680600e548561207d90919063ffffffff16565b61210690919063ffffffff16565b9050919050565b60115481565b6000600d54600b541015905090565b60106020528060005260406000206000915090505481565b600960009054906101000a900473ffffffffffffffffffffffffffffffffffffffff1681565b600d5481565b6000600160008373ffffffffffffffffffffffffffffffffffffffff1673ffffffffffffffffffffffffffffffffffffffff168152602001908152602001600020549050919050565b61173f612806565b73ffffffffffffffffffffffffffffffffffffffff1661175d611966565b73ffffffffffffffffffffffffffffffffffffffff16146117e6576040517f08c379a00000000000000000000000000000000000000000000000000000000081526004018080602001828103825260208152602001807f4f776e61626c653a2063616c6c6572206973206e6f7420746865206f776e657281525060200191505060405180910390fd5b600073ffffffffffffffffffffffffffffffffffffffff166000809054906101000a900473ffffffffffffffffffffffffffffffffffffffff1673ffffffffffffffffffffffffffffffffffffffff167f8be0079c531659141344cd1fd0a4f28419497f9722a3daafe3b4186f6b6457e060405160405180910390a360008060006101000a81548173ffffffffffffffffffffffffffffffffffffffff021916908373ffffffffffffffffffffffffffffffffffffffff160217905550565b600b5481565b60006118ea82604051806060016040528060248152602001612dc4602491396118db866118d6612806565b611e03565b612a059092919063ffffffff16565b90506118fe836118f8612806565b8361280e565b6000611927600561191960648661207d90919063ffffffff16565b61210690919063ffffffff16565b905061193e8160115461218c90919063ffffffff16565b6011819055506119608461195b83866122f590919063ffffffff16565b612ad3565b50505050565b60008060009054906101000a900473ffffffffffffffffffffffffffffffffffffffff16905090565b606060058054600181600116156101000203166002900480601f016020809104026020016040519081016040528092919081815260200182805460018160011615610100020316600290048015611a275780601f106119fc57610100808354040283529160200191611a27565b820191906000526020600020905b815481529060010190602001808311611a0a57829003601f168201915b5050505050905090565b611a39612806565b73ffffffffffffffffffffffffffffffffffffffff16611a57611966565b73ffffffffffffffffffffffffffffffffffffffff1614611ae0576040517f08c379a00000000000000000000000000000000000000000000000000000000081526004018080602001828103825260208152602001807f4f776e61626c653a2063616c6c6572206973206e6f7420746865206f776e657281525060200191505060405180910390fd5b6000611b096005611afb60648561207d90919063ffffffff16565b61210690919063ffffffff16565b9050611b208160115461218c90919063ffffffff16565b6011819055506000611b3e620f42408461207d90919063ffffffff16565b9050611b6581611b5784866122f590919063ffffffff16565b6122f590919063ffffffff16565b9250611b713384612378565b505050565b611b7e612806565b73ffffffffffffffffffffffffffffffffffffffff16611b9c611966565b73ffffffffffffffffffffffffffffffffffffffff1614611c25576040517f08c379a00000000000000000000000000000000000000000000000000000000081526004018080602001828103825260208152602001807f4f776e61626c653a2063616c6c6572206973206e6f7420746865206f776e657281525060200191505060405180910390fd5b6000600c60006101000a81548160ff021916908315150217905550565b6000611d05611c4f612806565b84611d0085604051806060016040528060258152602001612e946025913960026000611c79612806565b73ffffffffffffffffffffffffffffffffffffffff1673ffffffffffffffffffffffffffffffffffffffff16815260200190815260200160002060008a73ffffffffffffffffffffffffffffffffffffffff1673ffffffffffffffffffffffffffffffffffffffff16815260200190815260200160002054612a059092919063ffffffff16565b61280e565b6001905092915050565b600080611d396005611d2b60648661207d90919063ffffffff16565b61210690919063ffffffff16565b9050611d508160115461218c90919063ffffffff16565b6011819055506000611d6e620f42408561207d90919063ffffffff16565b9050611d9581611d8784876122f590919063ffffffff16565b6122f590919063ffffffff16565b9350611da13382612ad3565b611dab8585612c99565b50505092915050565b600e5481565b6000600f60008373ffffffffffffffffffffffffffffffffffffffff1673ffffffffffffffffffffffffffffffffffffffff168152602001908152602001600020549050919050565b6000600260008473ffffffffffffffffffffffffffffffffffffffff1673ffffffffffffffffffffffffffffffffffffffff16815260200190815260200160002060008373ffffffffffffffffffffffffffffffffffffffff1673ffffffffffffffffffffffffffffffffffffffff16815260200190815260200160002054905092915050565b611e92612806565b73ffffffffffffffffffffffffffffffffffffffff16611eb0611966565b73ffffffffffffffffffffffffffffffffffffffff1614611f39576040517f08c379a00000000000000000000000000000000000000000000000000000000081526004018080602001828103825260208152602001807f4f776e61626c653a2063616c6c6572206973206e6f7420746865206f776e657281525060200191505060405180910390fd5b600073ffffffffffffffffffffffffffffffffffffffff168173ffffffffffffffffffffffffffffffffffffffff161415611fbf576040517f08c379a0000000000000000000000000000000000000000000000000000000008152600401808060200182810382526026815260200180612d0d6026913960400191505060405180910390fd5b8073ffffffffffffffffffffffffffffffffffffffff166000809054906101000a900473ffffffffffffffffffffffffffffffffffffffff1673ffffffffffffffffffffffffffffffffffffffff167f8be0079c531659141344cd1fd0a4f28419497f9722a3daafe3b4186f6b6457e060405160405180910390a3806000806101000a81548173ffffffffffffffffffffffffffffffffffffffff021916908373ffffffffffffffffffffffffffffffffffffffff16021790555050565b60008082116120f4576040517f08c379a000000000000000000000000000000000000000000000000000000000815260040180806020018281038252601a8152602001807f536166654d6174683a206469766973696f6e206279207a65726f00000000000081525060200191505060405180910390fd5b8183816120fd57fe5b04905092915050565b6000808314156121195760009050612186565b600082840290508284828161212a57fe5b0414612181576040517f08c379a0000000000000000000000000000000000000000000000000000000008152600401808060200182810382526021815260200180612d7b6021913960400191505060405180910390fd5b809150505b92915050565b60008082840190508381101561220a576040517f08c379a000000000000000000000000000000000000000000000000000000000815260040180806020018281038252601b8152602001807f536166654d6174683a206164646974696f6e206f766572666c6f77000000000081525060200191505060405180910390fd5b8091505092915050565b61221f8383836122f0565b600073ffffffffffffffffffffffffffffffffffffffff168373ffffffffffffffffffffffffffffffffffffffff1614156122eb5761225c611513565b612276826122686113ed565b61218c90919063ffffffff16565b11156122ea576040517f08c379a00000000000000000000000000000000000000000000000000000000081526004018080602001828103825260198152602001807f45524332304361707065643a206361702065786365656465640000000000000081525060200191505060405180910390fd5b5b505050565b505050565b60008282111561236d576040517f08c379a000000000000000000000000000000000000000000000000000000000815260040180806020018281038252601e8152602001807f536166654d6174683a207375627472616374696f6e206f766572666c6f77000081525060200191505060405180910390fd5b818303905092915050565b600073ffffffffffffffffffffffffffffffffffffffff168273ffffffffffffffffffffffffffffffffffffffff16141561241b576040517f08c379a000000000000000000000000000000000000000000000000000000000815260040180806020018281038252601f8152602001807f45524332303a206d696e7420746f20746865207a65726f20616464726573730081525060200191505060405180910390fd5b61242760008383612cb7565b61243c8160035461218c90919063ffffffff16565b60038190555061249481600160008573ffffffffffffffffffffffffffffffffffffffff1673ffffffffffffffffffffffffffffffffffffffff1681526020019081526020016000205461218c90919063ffffffff16565b600160008473ffffffffffffffffffffffffffffffffffffffff1673ffffffffffffffffffffffffffffffffffffffff168152602001908152602001600020819055508173ffffffffffffffffffffffffffffffffffffffff16600073ffffffffffffffffffffffffffffffffffffffff167fddf252ad1be2c89b69c2b068fc378daa952ba7f163c4a11628f55a4df523b3ef836040518082815260200191505060405180910390a35050565b600073ffffffffffffffffffffffffffffffffffffffff168373ffffffffffffffffffffffffffffffffffffffff1614156125c7576040517f08c379a0000000000000000000000000000000000000000000000000000000008152600401808060200182810382526025815260200180612e096025913960400191505060405180910390fd5b600073ffffffffffffffffffffffffffffffffffffffff168273ffffffffffffffffffffffffffffffffffffffff16141561264d576040517f08c379a0000000000000000000000000000000000000000000000000000000008152600401808060200182810382526023815260200180612cc86023913960400191505060405180910390fd5b612658838383612cb7565b6126c481604051806060016040528060268152602001612d5560269139600160008773ffffffffffffffffffffffffffffffffffffffff1673ffffffffffffffffffffffffffffffffffffffff16815260200190815260200160002054612a059092919063ffffffff16565b600160008573ffffffffffffffffffffffffffffffffffffffff1673ffffffffffffffffffffffffffffffffffffffff1681526020019081526020016000208190555061275981600160008573ffffffffffffffffffffffffffffffffffffffff1673ffffffffffffffffffffffffffffffffffffffff1681526020019081526020016000205461218c90919063ffffffff16565b600160008473ffffffffffffffffffffffffffffffffffffffff1673ffffffffffffffffffffffffffffffffffffffff168152602001908152602001600020819055508173ffffffffffffffffffffffffffffffffffffffff168373ffffffffffffffffffffffffffffffffffffffff167fddf252ad1be2c89b69c2b068fc378daa952ba7f163c4a11628f55a4df523b3ef836040518082815260200191505060405180910390a3505050565b600033905090565b600073ffffffffffffffffffffffffffffffffffffffff168373ffffffffffffffffffffffffffffffffffffffff161415612894576040517f08c379a0000000000000000000000000000000000000000000000000000000008152600401808060200182810382526024815260200180612e2e6024913960400191505060405180910390fd5b600073ffffffffffffffffffffffffffffffffffffffff168273ffffffffffffffffffffffffffffffffffffffff16141561291a576040517f08c379a0000000000000000000000000000000000000000000000000000000008152600401808060200182810382526022815260200180612d336022913960400191505060405180910390fd5b80600260008573ffffffffffffffffffffffffffffffffffffffff1673ffffffffffffffffffffffffffffffffffffffff16815260200190815260200160002060008473ffffffffffffffffffffffffffffffffffffffff1673ffffffffffffffffffffffffffffffffffffffff168152602001908152602001600020819055508173ffffffffffffffffffffffffffffffffffffffff168373ffffffffffffffffffffffffffffffffffffffff167f8c5be1e5ebec7d5bd14f71427d1e84f3dd0314c0f7b2291e5b200ac8c7c3b925836040518082815260200191505060405180910390a3505050565b6000838311158290612ab2576040517f08c379a00000000000000000000000000000000000000000000000000000000081526004018080602001828103825283818151815260200191508051906020019080838360005b83811015612a77578082015181840152602081019050612a5c565b50505050905090810190601f168015612aa45780820380516001836020036101000a031916815260200191505b509250505060405180910390fd5b5082840390509392505050565b612ad0612aca612806565b82612ad3565b50565b600073ffffffffffffffffffffffffffffffffffffffff168273ffffffffffffffffffffffffffffffffffffffff161415612b59576040517f08c379a0000000000000000000000000000000000000000000000000000000008152600401808060200182810382526021815260200180612de86021913960400191505060405180910390fd5b612b6582600083612cb7565b612bd181604051806060016040528060228152602001612ceb60229139600160008673ffffffffffffffffffffffffffffffffffffffff1673ffffffffffffffffffffffffffffffffffffffff16815260200190815260200160002054612a059092919063ffffffff16565b600160008473ffffffffffffffffffffffffffffffffffffffff1673ffffffffffffffffffffffffffffffffffffffff16815260200190815260200160002081905550612c29816003546122f590919063ffffffff16565b600381905550600073ffffffffffffffffffffffffffffffffffffffff168273ffffffffffffffffffffffffffffffffffffffff167fddf252ad1be2c89b69c2b068fc378daa952ba7f163c4a11628f55a4df523b3ef836040518082815260200191505060405180910390a35050565b6000612cad612ca6612806565b8484612541565b6001905092915050565b612cc2838383612214565b50505056fe45524332303a207472616e7366657220746f20746865207a65726f206164647265737345524332303a206275726e20616d6f756e7420657863656564732062616c616e63654f776e61626c653a206e6577206f776e657220697320746865207a65726f206164647265737345524332303a20617070726f766520746f20746865207a65726f206164647265737345524332303a207472616e7366657220616d6f756e7420657863656564732062616c616e6365536166654d6174683a206d756c7469706c69636174696f6e206f766572666c6f7745524332303a207472616e7366657220616d6f756e74206578636565647320616c6c6f77616e636545524332303a206275726e20616d6f756e74206578636565647320616c6c6f77616e636545524332303a206275726e2066726f6d20746865207a65726f206164647265737345524332303a207472616e736665722066726f6d20746865207a65726f206164647265737345524332303a20617070726f76652066726f6d20746865207a65726f206164647265737355736572206d7573742068617665206174206c6561737420344255534420636f6e747269627574696f6e20746f2062652061626c6520746f20627579206c6f77657245524332303a2064656372656173656420616c6c6f77616e63652062656c6f77207a65726fa26469706673582212205bedaa677142befc6c33eb48001663c2fe5e9d41fbad9126df65cdf8635de9c464736f6c63430006080033536166654d6174683a206d756c7469706c69636174696f6e206f766572666c6f77",
  "immutableReferences": {},
  "source": "// SPDX-License-Identifier: MIT\n\npragma solidity >=0.6.0 <0.8.0;\n\nimport \"@openzeppelin/contracts/access/Ownable.sol\";\nimport \"@openzeppelin/contracts/token/ERC20/ERC20.sol\";\nimport \"@openzeppelin/contracts/token/ERC20/ERC20Burnable.sol\";\nimport \"@openzeppelin/contracts/token/ERC20/ERC20Capped.sol\";\nimport \"@openzeppelin/contracts/math/SafeMath.sol\";\n\ninterface IERCExtended {\n    function decimals() external view returns (uint8);\n}\n\ncontract ElonCoinWithPresale is Ownable, ERC20, ERC20Burnable, ERC20Capped {\n    using SafeMath for uint256;\n\n    // The token being received\n    IERC20 public tokenBUSD;\n\n    // Address where funds are sent to\n    address public wallet;\n\n    // How many token a buyer gets per 4 busd.\n    // The rate is the conversion between busd and the smallest and indivisible token unit.\n    // So, if you are using a rate of 10**18 with an ERC20 token with 18 decimals called TOK\n    // 4 busd will give you 1000000000000000000 unit, or 1 TOK.\n    uint256 public rate;\n\n    // Amount of busd raised\n    uint256 public busdRaised;\n\n    // Presale is still ongoing\n    bool public isOngoing = true;\n\n    uint256 public presaleCap; //amount of BUSD to raise == 80000 == 80000/4 = 20000 tokens\n\n    // investor minimum contributions, an investor can't have less than 4usdt in his contribution\n    uint256 public investorMinCap; // 4 busd\n\n    // Track investor contributions\n    mapping(address => uint256) public contributions;\n\n    //last dividend pool\n    mapping(address => uint256) public userLastDividened;\n\n    // total token in dividen pool\n    uint256 public totalDividend;\n\n    // -----------------------------------------\n    // MODIFIER\n    // -----------------------------------------\n\n    modifier presaleOngoing() {\n        require(isOngoing, \"Presale has ended\");\n        _;\n    }\n\n    // -----------------------------------------\n    // Crowdsale EVENTS\n    // -----------------------------------------\n\n    /**\n     * Event for token purchase logging\n     * @param purchaser who paid for the tokens\n     * @param beneficiary who got the tokens\n     * @param value busd paid for purchase\n     * @param amount amount of tokens purchased\n     */\n    event TokenPurchase(\n        address indexed purchaser,\n        address indexed beneficiary,\n        uint256 value,\n        uint256 amount\n    );\n\n    //--------------------------------------------\n    //  TOKENOMICS\n    //--------------------------------------------\n    uint256 internal constant dividendFee_ = 5; // 5% is being shared to holders\n    uint256 internal constant burntFee_ = 1000000; //0.0001% is being burnt,, solidity doesn't support decimals, amount/1000000 == 0.0001%\n    uint256 presaleTokens; // number of tokens to send to the presale contract, should be 20%% of maxSupply\n\n    //-------------------------\n    // OVERIDDEN FUNCTIONS\n    //---------------------------\n\n    function _beforeTokenTransfer(\n        address from,\n        address to,\n        uint256 amount\n    ) internal virtual override(ERC20, ERC20Capped) {\n        super._beforeTokenTransfer(from, to, amount);\n    }\n\n    /**\n     * @dev Destroys `amount` tokens from the caller.\n     *\n     * See {ERC20-_burn}.\n     */\n    function burn(uint256 amount) public virtual override {\n        uint256 _dividenedFee = amount.div(100).mul(dividendFee_);\n        totalDividend = totalDividend.add(_dividenedFee);\n        amount = amount.sub(_dividenedFee);\n        super.burn(amount);\n    }\n\n    //Extend parent to charge fee\n    function burnFrom(address account, uint256 amount) public virtual override {\n        //Override main burnFrom cause we need to get a transaction fee\n\n        uint256 decreasedAllowance =\n            allowance(account, _msgSender()).sub(\n                amount,\n                \"ERC20: burn amount exceeds allowance\"\n            );\n\n        _approve(account, _msgSender(), decreasedAllowance);\n        uint256 _dividenedFee = amount.div(100).mul(dividendFee_);\n        totalDividend = totalDividend.add(_dividenedFee);\n        _burn(account, amount.sub(_dividenedFee));\n    }\n\n    /**\n     * @dev Moves tokens `amount` from `sender` to `recipient`.\n     *\n     * Extends parent transfer\n     */\n    function transfer(address recipient, uint256 amount)\n        public\n        virtual\n        override\n        returns (bool)\n    {\n        uint256 _dividenedFee = amount.div(100).mul(dividendFee_);\n        totalDividend = totalDividend.add(_dividenedFee);\n        uint256 _burntFee = amount.div(burntFee_);\n        amount = amount.sub(_dividenedFee).sub(_burntFee);\n        _burn(msg.sender, _burntFee);\n        super.transfer(recipient, amount);\n    }\n\n    function mint(uint256 amount) public onlyOwner {\n        uint256 _dividenedFee = amount.div(100).mul(dividendFee_);\n        totalDividend = totalDividend.add(_dividenedFee);\n        uint256 _burntFee = amount.div(burntFee_); // Since coin isn't already created, there's no need to burn it, so instead, we just DON'T create the coin\n        amount = amount.sub(_dividenedFee).sub(_burntFee);\n        _mint(msg.sender, amount);\n    }\n\n    constructor(address _tokenBUSD, uint8 decimal_)\n        public\n        ERC20(\"ElonCoin\", \"ELON\")\n        ERC20Capped(100000 * (10**uint256(decimal_)))\n    {\n        require(_tokenBUSD != address(0), \"Zero address\");\n        _setupDecimals(decimal_);\n        wallet = msg.sender;\n        tokenBUSD = IERC20(_tokenBUSD);\n\n        presaleCap = 80000 * (10**uint256(IERCExtended(_tokenBUSD).decimals()));\n        investorMinCap = 4 * (10**uint256(IERCExtended(_tokenBUSD).decimals()));\n        rate = 10**uint256(decimal_); //4busd == 1TOKEN\n\n        // presaleTokens = 20000 * 10**(uint256(decimals())); //we could hardcode this here (20000 Tokens)\n        presaleTokens = cap().div(100).mul(20); //or compute the value from cap\n        _mint(address(this), presaleTokens);\n    }\n\n    //// -----------------------------------------\n    // Crowdsale Public interface\n    // -----------------------------------------\n\n    /**\n     * @dev Checks whether the cap has been reached.\n     * @return Whether the cap was reached\n     */\n    function capReached() public view returns (bool) {\n        return busdRaised >= presaleCap;\n    }\n\n    /**\n     * @dev Returns the amount contributed so far by a sepecific user.\n     * @param _beneficiary Address of contributor\n     * @return User contribution so far\n     */\n    function getUserContribution(address _beneficiary)\n        public\n        view\n        returns (uint256)\n    {\n        return contributions[_beneficiary];\n    }\n\n    /**\n     * @dev Allows admin to end the presale\n     */\n    function endPresale() public onlyOwner {\n        isOngoing = false;\n        //If Ended, It can't be started again\n    }\n\n    /**\n     * @dev low level token purchase ***DO NOT OVERRIDE***\n     * @param _beneficiary Address performing the token purchase\n     */\n    function buyTokens(address _beneficiary, uint256 _busdAmount)\n        public\n        presaleOngoing\n    {\n        require(_beneficiary != address(0), \"Zero Address\");\n        require(busdRaised.add(_busdAmount) <= presaleCap, \"Cap exceeded\");\n\n        uint256 _existingContribution = contributions[_beneficiary];\n        uint256 _newContribution = _existingContribution.add(_busdAmount);\n        require(\n            _newContribution >= investorMinCap,\n            \"User must have at least 4BUSD contribution to be able to buy lower\"\n        );\n        contributions[_beneficiary] = _newContribution;\n\n        // calculate token amount to be created\n        uint256 tokens = busdToToken(_busdAmount);\n\n        // update state\n        busdRaised = busdRaised.add(_busdAmount);\n\n        //Send tokens to buyer\n        _transfer(address(this), _beneficiary, tokens);\n\n        //emit an event\n        emit TokenPurchase(msg.sender, _beneficiary, _busdAmount, tokens);\n\n        //Forward BUSD to wallet\n        tokenBUSD.transferFrom(msg.sender, wallet, _busdAmount);\n    }\n\n    function claimDividend() public returns (bool) {\n        address _customer = msg.sender;\n        uint256 userBalance = balanceOf(_customer);\n\n        // substract last value user has taken\n        uint256 dividendToBeShared =\n            totalDividend.sub(userLastDividened[_customer]);\n\n        require(userBalance > 0, \"Only holders allowed\");\n\n        require(dividendToBeShared > 0, \"No token in the pool\");\n\n        uint256 totalSupply_ =\n            totalSupply().sub(presaleTokens).sub(totalDividend);\n\n        //Calculate how many token a user gets, FORMULA balance/totalSupply(minus presale balance and dividend contract balance)*tokenToBeShared\n        uint256 usersShare =\n            userBalance.div(totalSupply_).mul(dividendToBeShared);\n        _mint(msg.sender, usersShare);\n\n        userLastDividened[_customer] = totalDividend;\n    }\n\n    // -----------------------------------------\n    // Internal interface (extensible)\n    // -----------------------------------------\n\n    function busdToToken(uint256 _busdAmount) public view returns (uint256) {\n        return _busdAmount.div(investorMinCap).mul(rate);\n    }\n\n    // -----------------------------------------\n    // Crowdsale external interface\n    // -----------------------------------------\n\n    /**\n     * @dev fallback function ***DO NOT OVERRIDE***\n     */\n    receive() external payable {\n        //Send 0 BNB to claim dividends... Won't stop you from sending more tho :)\n        claimDividend();\n    }\n}\n",
  "sourcePath": "C:/Users/Isaac/Documents/ProgrammingLanguagesProjects/fiverr_dave_600/truffle_contracts/contracts/ElonCoinWithPresale.sol",
  "compiler": {
    "name": "solc",
    "version": "0.6.8+commit.0bbfe453.Emscripten.clang"
  },
  "schemaVersion": "3.3.2",
  "updatedAt": "2021-02-22T09:44:08.673Z",
  "networkType": "ethereum",
  "devdoc": {
    "methods": {
      "allowance(address,address)": {
        "details": "See {IERC20-allowance}."
      },
      "approve(address,uint256)": {
        "details": "See {IERC20-approve}.     * Requirements:     * - `spender` cannot be the zero address."
      },
      "balanceOf(address)": {
        "details": "See {IERC20-balanceOf}."
      },
      "burn(uint256)": {
        "details": "Destroys `amount` tokens from the caller.     * See {ERC20-_burn}."
      },
      "buyTokens(address,uint256)": {
        "details": "low level token purchase ***DO NOT OVERRIDE***",
        "params": {
          "_beneficiary": "Address performing the token purchase"
        }
      },
      "cap()": {
        "details": "Returns the cap on the token's total supply."
      },
      "capReached()": {
        "details": "Checks whether the cap has been reached.",
        "returns": {
          "_0": "Whether the cap was reached"
        }
      },
      "decimals()": {
        "details": "Returns the number of decimals used to get its user representation. For example, if `decimals` equals `2`, a balance of `505` tokens should be displayed to a user as `5,05` (`505 / 10 ** 2`).     * Tokens usually opt for a value of 18, imitating the relationship between Ether and Wei. This is the value {ERC20} uses, unless {_setupDecimals} is called.     * NOTE: This information is only used for _display_ purposes: it in no way affects any of the arithmetic of the contract, including {IERC20-balanceOf} and {IERC20-transfer}."
      },
      "decreaseAllowance(address,uint256)": {
        "details": "Atomically decreases the allowance granted to `spender` by the caller.     * This is an alternative to {approve} that can be used as a mitigation for problems described in {IERC20-approve}.     * Emits an {Approval} event indicating the updated allowance.     * Requirements:     * - `spender` cannot be the zero address. - `spender` must have allowance for the caller of at least `subtractedValue`."
      },
      "endPresale()": {
        "details": "Allows admin to end the presale"
      },
      "getUserContribution(address)": {
        "details": "Returns the amount contributed so far by a sepecific user.",
        "params": {
          "_beneficiary": "Address of contributor"
        },
        "returns": {
          "_0": "User contribution so far"
        }
      },
      "increaseAllowance(address,uint256)": {
        "details": "Atomically increases the allowance granted to `spender` by the caller.     * This is an alternative to {approve} that can be used as a mitigation for problems described in {IERC20-approve}.     * Emits an {Approval} event indicating the updated allowance.     * Requirements:     * - `spender` cannot be the zero address."
      },
      "name()": {
        "details": "Returns the name of the token."
      },
      "owner()": {
        "details": "Returns the address of the current owner."
      },
      "renounceOwnership()": {
        "details": "Leaves the contract without owner. It will not be possible to call `onlyOwner` functions anymore. Can only be called by the current owner.     * NOTE: Renouncing ownership will leave the contract without an owner, thereby removing any functionality that is only available to the owner."
      },
      "symbol()": {
        "details": "Returns the symbol of the token, usually a shorter version of the name."
      },
      "totalSupply()": {
        "details": "See {IERC20-totalSupply}."
      },
      "transfer(address,uint256)": {
        "details": "Moves tokens `amount` from `sender` to `recipient`.     * Extends parent transfer"
      },
      "transferFrom(address,address,uint256)": {
        "details": "See {IERC20-transferFrom}.     * Emits an {Approval} event indicating the updated allowance. This is not required by the EIP. See the note at the beginning of {ERC20}.     * Requirements:     * - `sender` and `recipient` cannot be the zero address. - `sender` must have a balance of at least `amount`. - the caller must have allowance for ``sender``'s tokens of at least `amount`."
      },
      "transferOwnership(address)": {
        "details": "Transfers ownership of the contract to a new account (`newOwner`). Can only be called by the current owner."
      }
    }
  },
  "userdoc": {
    "methods": {}
  }
}