{
  "contractName": "Presale",
  "abi": [
    {
      "inputs": [
        {
          "internalType": "address",
          "name": "_tokenBUSD",
          "type": "address"
        }
      ],
      "stateMutability": "nonpayable",
      "type": "constructor"
    },
    {
      "anonymous": false,
      "inputs": [
        {
          "indexed": true,
          "internalType": "address",
          "name": "previousOwner",
          "type": "address"
        },
        {
          "indexed": true,
          "internalType": "address",
          "name": "newOwner",
          "type": "address"
        }
      ],
      "name": "OwnershipTransferred",
      "type": "event"
    },
    {
      "anonymous": false,
      "inputs": [
        {
          "indexed": true,
          "internalType": "address",
          "name": "purchaser",
          "type": "address"
        },
        {
          "indexed": true,
          "internalType": "address",
          "name": "beneficiary",
          "type": "address"
        },
        {
          "indexed": false,
          "internalType": "uint256",
          "name": "value",
          "type": "uint256"
        },
        {
          "indexed": false,
          "internalType": "uint256",
          "name": "amount",
          "type": "uint256"
        }
      ],
      "name": "TokenPurchase",
      "type": "event"
    },
    {
      "inputs": [],
      "name": "busdRaised",
      "outputs": [
        {
          "internalType": "uint256",
          "name": "",
          "type": "uint256"
        }
      ],
      "stateMutability": "view",
      "type": "function",
      "constant": true
    },
    {
      "inputs": [],
      "name": "cap",
      "outputs": [
        {
          "internalType": "uint256",
          "name": "",
          "type": "uint256"
        }
      ],
      "stateMutability": "view",
      "type": "function",
      "constant": true
    },
    {
      "inputs": [
        {
          "internalType": "address",
          "name": "",
          "type": "address"
        }
      ],
      "name": "contributions",
      "outputs": [
        {
          "internalType": "uint256",
          "name": "",
          "type": "uint256"
        }
      ],
      "stateMutability": "view",
      "type": "function",
      "constant": true
    },
    {
      "inputs": [],
      "name": "investorMinCap",
      "outputs": [
        {
          "internalType": "uint256",
          "name": "",
          "type": "uint256"
        }
      ],
      "stateMutability": "view",
      "type": "function",
      "constant": true
    },
    {
      "inputs": [],
      "name": "isOngoing",
      "outputs": [
        {
          "internalType": "bool",
          "name": "",
          "type": "bool"
        }
      ],
      "stateMutability": "view",
      "type": "function",
      "constant": true
    },
    {
      "inputs": [],
      "name": "owner",
      "outputs": [
        {
          "internalType": "address",
          "name": "",
          "type": "address"
        }
      ],
      "stateMutability": "view",
      "type": "function",
      "constant": true
    },
    {
      "inputs": [],
      "name": "rate",
      "outputs": [
        {
          "internalType": "uint256",
          "name": "",
          "type": "uint256"
        }
      ],
      "stateMutability": "view",
      "type": "function",
      "constant": true
    },
    {
      "inputs": [],
      "name": "renounceOwnership",
      "outputs": [],
      "stateMutability": "nonpayable",
      "type": "function"
    },
    {
      "inputs": [],
      "name": "token",
      "outputs": [
        {
          "internalType": "contract IERC20",
          "name": "",
          "type": "address"
        }
      ],
      "stateMutability": "view",
      "type": "function",
      "constant": true
    },
    {
      "inputs": [],
      "name": "tokenBUSD",
      "outputs": [
        {
          "internalType": "contract IERC20",
          "name": "",
          "type": "address"
        }
      ],
      "stateMutability": "view",
      "type": "function",
      "constant": true
    },
    {
      "inputs": [
        {
          "internalType": "address",
          "name": "newOwner",
          "type": "address"
        }
      ],
      "name": "transferOwnership",
      "outputs": [],
      "stateMutability": "nonpayable",
      "type": "function"
    },
    {
      "inputs": [],
      "name": "wallet",
      "outputs": [
        {
          "internalType": "address",
          "name": "",
          "type": "address"
        }
      ],
      "stateMutability": "view",
      "type": "function",
      "constant": true
    },
    {
      "stateMutability": "payable",
      "type": "receive",
      "payable": true
    },
    {
      "inputs": [
        {
          "internalType": "address",
          "name": "_token",
          "type": "address"
        }
      ],
      "name": "updateElonAddress",
      "outputs": [],
      "stateMutability": "nonpayable",
      "type": "function"
    },
    {
      "inputs": [],
      "name": "capReached",
      "outputs": [
        {
          "internalType": "bool",
          "name": "",
          "type": "bool"
        }
      ],
      "stateMutability": "view",
      "type": "function",
      "constant": true
    },
    {
      "inputs": [
        {
          "internalType": "address",
          "name": "_beneficiary",
          "type": "address"
        }
      ],
      "name": "getUserContribution",
      "outputs": [
        {
          "internalType": "uint256",
          "name": "",
          "type": "uint256"
        }
      ],
      "stateMutability": "view",
      "type": "function",
      "constant": true
    },
    {
      "inputs": [],
      "name": "endPresale",
      "outputs": [],
      "stateMutability": "nonpayable",
      "type": "function"
    },
    {
      "inputs": [
        {
          "internalType": "address",
          "name": "_beneficiary",
          "type": "address"
        },
        {
          "internalType": "uint256",
          "name": "busdAmount",
          "type": "uint256"
        }
      ],
      "name": "buyTokens",
      "outputs": [],
      "stateMutability": "nonpayable",
      "type": "function"
    },
    {
      "inputs": [
        {
          "internalType": "uint256",
          "name": "_busdAmount",
          "type": "uint256"
        }
      ],
      "name": "busdToToken",
      "outputs": [
        {
          "internalType": "uint256",
          "name": "",
          "type": "uint256"
        }
      ],
      "stateMutability": "view",
      "type": "function",
      "constant": true
    }
  ],
  "bytecode": "0x60806040526001600660006101000a81548160ff0219169083151502179055503480156200002c57600080fd5b506040516200193e3803806200193e833981810160405260208110156200005257600080fd5b8101908080519060200190929190505050600062000075620003ac60201b60201c565b9050806000806101000a81548173ffffffffffffffffffffffffffffffffffffffff021916908373ffffffffffffffffffffffffffffffffffffffff1602179055508073ffffffffffffffffffffffffffffffffffffffff16600073ffffffffffffffffffffffffffffffffffffffff167f8be0079c531659141344cd1fd0a4f28419497f9722a3daafe3b4186f6b6457e060405160405180910390a350600073ffffffffffffffffffffffffffffffffffffffff168173ffffffffffffffffffffffffffffffffffffffff161415620001b7576040517f08c379a000000000000000000000000000000000000000000000000000000000815260040180806020018281038252600c8152602001807f5a65726f2061646472657373000000000000000000000000000000000000000081525060200191505060405180910390fd5b33600360006101000a81548173ffffffffffffffffffffffffffffffffffffffff021916908373ffffffffffffffffffffffffffffffffffffffff16021790555080600260006101000a81548173ffffffffffffffffffffffffffffffffffffffff021916908373ffffffffffffffffffffffffffffffffffffffff160217905550600260009054906101000a900473ffffffffffffffffffffffffffffffffffffffff1673ffffffffffffffffffffffffffffffffffffffff1663313ce5676040518163ffffffff1660e01b815260040160206040518083038186803b158015620002a257600080fd5b505afa158015620002b7573d6000803e3d6000fd5b505050506040513d6020811015620002ce57600080fd5b810190808051906020019092919050505060ff16600a0a6201388002600781905550600260009054906101000a900473ffffffffffffffffffffffffffffffffffffffff1673ffffffffffffffffffffffffffffffffffffffff1663313ce5676040518163ffffffff1660e01b815260040160206040518083038186803b1580156200035957600080fd5b505afa1580156200036e573d6000803e3d6000fd5b505050506040513d60208110156200038557600080fd5b810190808051906020019092919050505060ff16600a0a60040260088190555050620003b4565b600033905090565b61157a80620003c46000396000f3fe60806040526004361061010d5760003560e01c8063715018a611610095578063b25d7f5411610064578063b25d7f54146104a6578063bb8b2b47146104d1578063d1f409dd14610536578063f2fde38b14610587578063fc0c546a146105d857610180565b8063715018a6146103f6578063731f04a31461040d5780638da5cb5b14610438578063a43be57b1461048f57610180565b80633e0881a9116100dc5780633e0881a91461028d57806342e94c90146102bc57806344118ce1146103215780634f93594514610370578063521eb2731461039f57610180565b80630752881a14610185578063213ef7f7146101e05780632c4e722e14610237578063355274ea1461026257610180565b36610180576040517f08c379a00000000000000000000000000000000000000000000000000000000081526004018080602001828103825260088152602001807f53656e7420626e6200000000000000000000000000000000000000000000000081525060200191505060405180910390fd5b600080fd5b34801561019157600080fd5b506101de600480360360408110156101a857600080fd5b81019080803573ffffffffffffffffffffffffffffffffffffffff1690602001909291908035906020019092919050505061062f565b005b3480156101ec57600080fd5b506101f5610768565b604051808273ffffffffffffffffffffffffffffffffffffffff1673ffffffffffffffffffffffffffffffffffffffff16815260200191505060405180910390f35b34801561024357600080fd5b5061024c61078e565b6040518082815260200191505060405180910390f35b34801561026e57600080fd5b50610277610794565b6040518082815260200191505060405180910390f35b34801561029957600080fd5b506102a261079a565b604051808215151515815260200191505060405180910390f35b3480156102c857600080fd5b5061030b600480360360208110156102df57600080fd5b81019080803573ffffffffffffffffffffffffffffffffffffffff1690602001909291905050506107ad565b6040518082815260200191505060405180910390f35b34801561032d57600080fd5b5061035a6004803603602081101561034457600080fd5b81019080803590602001909291905050506107c5565b6040518082815260200191505060405180910390f35b34801561037c57600080fd5b506103856107d7565b604051808215151515815260200191505060405180910390f35b3480156103ab57600080fd5b506103b46107e6565b604051808273ffffffffffffffffffffffffffffffffffffffff1673ffffffffffffffffffffffffffffffffffffffff16815260200191505060405180910390f35b34801561040257600080fd5b5061040b61080c565b005b34801561041957600080fd5b5061042261097a565b6040518082815260200191505060405180910390f35b34801561044457600080fd5b5061044d610980565b604051808273ffffffffffffffffffffffffffffffffffffffff1673ffffffffffffffffffffffffffffffffffffffff16815260200191505060405180910390f35b34801561049b57600080fd5b506104a46109a9565b005b3480156104b257600080fd5b506104bb610a75565b6040518082815260200191505060405180910390f35b3480156104dd57600080fd5b50610520600480360360208110156104f457600080fd5b81019080803573ffffffffffffffffffffffffffffffffffffffff169060200190929190505050610a7b565b6040518082815260200191505060405180910390f35b34801561054257600080fd5b506105856004803603602081101561055957600080fd5b81019080803573ffffffffffffffffffffffffffffffffffffffff169060200190929190505050610ac4565b005b34801561059357600080fd5b506105d6600480360360208110156105aa57600080fd5b81019080803573ffffffffffffffffffffffffffffffffffffffff169060200190929190505050610d09565b005b3480156105e457600080fd5b506105ed610efc565b604051808273ffffffffffffffffffffffffffffffffffffffff1673ffffffffffffffffffffffffffffffffffffffff16815260200191505060405180910390f35b600660009054906101000a900460ff166106b1576040517f08c379a00000000000000000000000000000000000000000000000000000000081526004018080602001828103825260118152602001807f50726573616c652068617320656e64656400000000000000000000000000000081525060200191505060405180910390fd5b6106bb8282610f22565b60006106c682611105565b90506106dd8260055461113790919063ffffffff16565b6005819055506106ed83826111bf565b8273ffffffffffffffffffffffffffffffffffffffff163373ffffffffffffffffffffffffffffffffffffffff167f623b3804fa71d67900d064613da8f94b9617215ee90799290593e1745087ad188484604051808381526020018281526020019250505060405180910390a3610763826112a8565b505050565b600260009054906101000a900473ffffffffffffffffffffffffffffffffffffffff1681565b60045481565b60075481565b600660009054906101000a900460ff1681565b60096020528060005260406000206000915090505481565b60006107d082611105565b9050919050565b60006007546005541015905090565b600360009054906101000a900473ffffffffffffffffffffffffffffffffffffffff1681565b6108146113e6565b73ffffffffffffffffffffffffffffffffffffffff16610832610980565b73ffffffffffffffffffffffffffffffffffffffff16146108bb576040517f08c379a00000000000000000000000000000000000000000000000000000000081526004018080602001828103825260208152602001807f4f776e61626c653a2063616c6c6572206973206e6f7420746865206f776e657281525060200191505060405180910390fd5b600073ffffffffffffffffffffffffffffffffffffffff166000809054906101000a900473ffffffffffffffffffffffffffffffffffffffff1673ffffffffffffffffffffffffffffffffffffffff167f8be0079c531659141344cd1fd0a4f28419497f9722a3daafe3b4186f6b6457e060405160405180910390a360008060006101000a81548173ffffffffffffffffffffffffffffffffffffffff021916908373ffffffffffffffffffffffffffffffffffffffff160217905550565b60055481565b60008060009054906101000a900473ffffffffffffffffffffffffffffffffffffffff16905090565b6109b16113e6565b73ffffffffffffffffffffffffffffffffffffffff166109cf610980565b73ffffffffffffffffffffffffffffffffffffffff1614610a58576040517f08c379a00000000000000000000000000000000000000000000000000000000081526004018080602001828103825260208152602001807f4f776e61626c653a2063616c6c6572206973206e6f7420746865206f776e657281525060200191505060405180910390fd5b6000600660006101000a81548160ff021916908315150217905550565b60085481565b6000600960008373ffffffffffffffffffffffffffffffffffffffff1673ffffffffffffffffffffffffffffffffffffffff168152602001908152602001600020549050919050565b610acc6113e6565b73ffffffffffffffffffffffffffffffffffffffff16610aea610980565b73ffffffffffffffffffffffffffffffffffffffff1614610b73576040517f08c379a00000000000000000000000000000000000000000000000000000000081526004018080602001828103825260208152602001807f4f776e61626c653a2063616c6c6572206973206e6f7420746865206f776e657281525060200191505060405180910390fd5b600073ffffffffffffffffffffffffffffffffffffffff168173ffffffffffffffffffffffffffffffffffffffff161415610c16576040517f08c379a000000000000000000000000000000000000000000000000000000000815260040180806020018281038252600c8152602001807f5a65726f2061646472657373000000000000000000000000000000000000000081525060200191505060405180910390fd5b80600160006101000a81548173ffffffffffffffffffffffffffffffffffffffff021916908373ffffffffffffffffffffffffffffffffffffffff160217905550600160009054906101000a900473ffffffffffffffffffffffffffffffffffffffff1673ffffffffffffffffffffffffffffffffffffffff1663313ce5676040518163ffffffff1660e01b815260040160206040518083038186803b158015610cbf57600080fd5b505afa158015610cd3573d6000803e3d6000fd5b505050506040513d6020811015610ce957600080fd5b810190808051906020019092919050505060ff16600a0a60048190555050565b610d116113e6565b73ffffffffffffffffffffffffffffffffffffffff16610d2f610980565b73ffffffffffffffffffffffffffffffffffffffff1614610db8576040517f08c379a00000000000000000000000000000000000000000000000000000000081526004018080602001828103825260208152602001807f4f776e61626c653a2063616c6c6572206973206e6f7420746865206f776e657281525060200191505060405180910390fd5b600073ffffffffffffffffffffffffffffffffffffffff168173ffffffffffffffffffffffffffffffffffffffff161415610e3e576040517f08c379a00000000000000000000000000000000000000000000000000000000081526004018080602001828103825260268152602001806114fe6026913960400191505060405180910390fd5b8073ffffffffffffffffffffffffffffffffffffffff166000809054906101000a900473ffffffffffffffffffffffffffffffffffffffff1673ffffffffffffffffffffffffffffffffffffffff167f8be0079c531659141344cd1fd0a4f28419497f9722a3daafe3b4186f6b6457e060405160405180910390a3806000806101000a81548173ffffffffffffffffffffffffffffffffffffffff021916908373ffffffffffffffffffffffffffffffffffffffff16021790555050565b600160009054906101000a900473ffffffffffffffffffffffffffffffffffffffff1681565b600073ffffffffffffffffffffffffffffffffffffffff168273ffffffffffffffffffffffffffffffffffffffff161415610fc5576040517f08c379a000000000000000000000000000000000000000000000000000000000815260040180806020018281038252600c8152602001807f5a65726f2041646472657373000000000000000000000000000000000000000081525060200191505060405180910390fd5b600754610fdd8260055461113790919063ffffffff16565b1115611051576040517f08c379a000000000000000000000000000000000000000000000000000000000815260040180806020018281038252600c8152602001807f436170206578636565646564000000000000000000000000000000000000000081525060200191505060405180910390fd5b6000600960008473ffffffffffffffffffffffffffffffffffffffff1673ffffffffffffffffffffffffffffffffffffffff16815260200190815260200160002054905060006110aa838361113790919063ffffffff16565b90506008548110156110bb57600080fd5b80600960008673ffffffffffffffffffffffffffffffffffffffff1673ffffffffffffffffffffffffffffffffffffffff1681526020019081526020016000208190555050505050565b6000611130600454611122600854856113ee90919063ffffffff16565b61147790919063ffffffff16565b9050919050565b6000808284019050838110156111b5576040517f08c379a000000000000000000000000000000000000000000000000000000000815260040180806020018281038252601b8152602001807f536166654d6174683a206164646974696f6e206f766572666c6f77000000000081525060200191505060405180910390fd5b8091505092915050565b600160009054906101000a900473ffffffffffffffffffffffffffffffffffffffff1673ffffffffffffffffffffffffffffffffffffffff1663a9059cbb83836040518363ffffffff1660e01b8152600401808373ffffffffffffffffffffffffffffffffffffffff1673ffffffffffffffffffffffffffffffffffffffff16815260200182815260200192505050602060405180830381600087803b15801561126857600080fd5b505af115801561127c573d6000803e3d6000fd5b505050506040513d602081101561129257600080fd5b8101908080519060200190929190505050505050565b600260009054906101000a900473ffffffffffffffffffffffffffffffffffffffff1673ffffffffffffffffffffffffffffffffffffffff166323b872dd33600360009054906101000a900473ffffffffffffffffffffffffffffffffffffffff16846040518463ffffffff1660e01b8152600401808473ffffffffffffffffffffffffffffffffffffffff1673ffffffffffffffffffffffffffffffffffffffff1681526020018373ffffffffffffffffffffffffffffffffffffffff1673ffffffffffffffffffffffffffffffffffffffff1681526020018281526020019350505050602060405180830381600087803b1580156113a757600080fd5b505af11580156113bb573d6000803e3d6000fd5b505050506040513d60208110156113d157600080fd5b81019080805190602001909291905050505050565b600033905090565b6000808211611465576040517f08c379a000000000000000000000000000000000000000000000000000000000815260040180806020018281038252601a8152602001807f536166654d6174683a206469766973696f6e206279207a65726f00000000000081525060200191505060405180910390fd5b81838161146e57fe5b04905092915050565b60008083141561148a57600090506114f7565b600082840290508284828161149b57fe5b04146114f2576040517f08c379a00000000000000000000000000000000000000000000000000000000081526004018080602001828103825260218152602001806115246021913960400191505060405180910390fd5b809150505b9291505056fe4f776e61626c653a206e6577206f776e657220697320746865207a65726f2061646472657373536166654d6174683a206d756c7469706c69636174696f6e206f766572666c6f77a264697066735822122027c51fd92cc91502a995697d363b9052f7fcf0ff69a8ae09e36a8cf04862767d64736f6c63430006080033",
  "immutableReferences": {},
  "source": "// SPDX-License-Identifier: MIT\npragma solidity >=0.4.22 <0.8.0;\n\nimport \"@openzeppelin/contracts/access/Ownable.sol\";\nimport \"@openzeppelin/contracts/math/SafeMath.sol\";\n\ninterface IERC20 {\n    function totalSupply() external view returns (uint256);\n\n    function balanceOf(address account) external view returns (uint256);\n\n    function decimals() external view returns (uint8);\n\n    function transfer(address recipient, uint256 amount)\n        external\n        returns (bool);\n\n    function allowance(address owner, address spender)\n        external\n        view\n        returns (uint256);\n\n    function approve(address spender, uint256 amount) external returns (bool);\n\n    function transferFrom(\n        address sender,\n        address recipient,\n        uint256 amount\n    ) external returns (bool);\n}\n\ncontract Presale is Ownable {\n    using SafeMath for uint256;\n\n    // The token being sold\n    IERC20 public token;\n\n    // The token being received\n    IERC20 public tokenBUSD;\n\n    // Address where funds are sent to\n    address public wallet;\n\n    // How many token a buyer gets per 4 busd.\n    // The rate is the conversion between busd and the smallest and indivisible token unit.\n    // So, if you are using a rate of 10**18 with an ERC20 token with 18 decimals called TOK\n    // 4 busd will give you 1000000000000000000 unit, or 1 TOK.\n    uint256 public rate;\n\n    // Amount of busd raised\n    uint256 public busdRaised;\n\n    // Presale is still ongoing\n    bool public isOngoing = true;\n\n    uint256 public cap; //amount of BUSD to raise == 80000 == 80000/4 = 20000 tokens\n\n    // investor minimum contributions, an investor can't have less than 4usdt in his contribution\n    uint256 public investorMinCap; // 4 busd\n\n    // Track investor contributions\n    mapping(address => uint256) public contributions;\n\n    // -----------------------------------------\n    // Crowdsale EVENTS\n    // -----------------------------------------\n\n    /**\n     * Event for token purchase logging\n     * @param purchaser who paid for the tokens\n     * @param beneficiary who got the tokens\n     * @param value busd paid for purchase\n     * @param amount amount of tokens purchased\n     */\n    event TokenPurchase(\n        address indexed purchaser,\n        address indexed beneficiary,\n        uint256 value,\n        uint256 amount\n    );\n\n    //constructor\n    constructor(address _tokenBUSD) public {\n        require(_tokenBUSD != address(0), \"Zero address\");\n\n        wallet = msg.sender;\n        tokenBUSD = IERC20(_tokenBUSD);\n\n        cap = 80000 * (10**uint256(tokenBUSD.decimals()));\n        investorMinCap = 4 * (10**uint256(tokenBUSD.decimals()));\n    }\n\n    function updateElonAddress(address _token) public onlyOwner {\n        require(_token != address(0), \"Zero address\");\n\n        token = IERC20(_token);\n        rate = 10**(uint256(token.decimals())); //4busd == 1TOKEN\n    }\n\n    // -----------------------------------------\n    // Crowdsale external interface\n    // -----------------------------------------\n\n    /**\n     * @dev fallback function ***DO NOT OVERRIDE***\n     */\n    receive() external payable {\n        revert(\"Sent bnb\");\n    }\n\n    //// -----------------------------------------\n    // Crowdsale Public interface\n    // -----------------------------------------\n\n    /**\n     * @dev Checks whether the cap has been reached.\n     * @return Whether the cap was reached\n     */\n    function capReached() public view returns (bool) {\n        return busdRaised >= cap;\n    }\n\n    /**\n     * @dev Returns the amount contributed so far by a sepecific user.\n     * @param _beneficiary Address of contributor\n     * @return User contribution so far\n     */\n    function getUserContribution(address _beneficiary)\n        public\n        view\n        returns (uint256)\n    {\n        return contributions[_beneficiary];\n    }\n\n    /**\n     * @dev Allows admin to end the presale\n     */\n    function endPresale() public onlyOwner {\n        isOngoing = false;\n        //If Ended, It ca't be started again\n    }\n\n    /**\n     * @dev low level token purchase ***DO NOT OVERRIDE***\n     * @param _beneficiary Address performing the token purchase\n     */\n    function buyTokens(address _beneficiary, uint256 busdAmount)\n        public\n        presaleOngoing\n    {\n        _preValidatePurchase(_beneficiary, busdAmount);\n\n        // calculate token amount to be created\n        uint256 tokens = _getTokenAmount(busdAmount);\n\n        // update state\n        busdRaised = busdRaised.add(busdAmount);\n\n        //Send tokens to buyer\n        _deliverTokens(_beneficiary, tokens);\n        //emit an event\n        emit TokenPurchase(msg.sender, _beneficiary, busdAmount, tokens);\n\n        //Forward BUSD to wallet\n        _forwardFunds(busdAmount);\n    }\n\n    // -----------------------------------------\n    // MODIFIER\n    // -----------------------------------------\n\n    modifier presaleOngoing() {\n        require(isOngoing, \"Presale has ended\");\n        _;\n    }\n\n    // -----------------------------------------\n    // Internal interface (extensible)\n    // -----------------------------------------\n\n    /**\n     * @dev Validation of an incoming purchase. Use require statements to revert state when conditions are not met. Use super to concatenate validations.\n     * @param _beneficiary Address performing the token purchase\n     * @param _busdAmount Value in wei involved in the purchase\n     */\n    function _preValidatePurchase(address _beneficiary, uint256 _busdAmount)\n        internal\n        virtual\n    {\n        require(_beneficiary != address(0), \"Zero Address\");\n        require(busdRaised.add(_busdAmount) <= cap, \"Cap exceeded\");\n        uint256 _existingContribution = contributions[_beneficiary];\n        uint256 _newContribution = _existingContribution.add(_busdAmount);\n        require(_newContribution >= investorMinCap);\n        contributions[_beneficiary] = _newContribution;\n    }\n\n    /**\n     * @dev Source of tokens. Override this method to modify the way in which the crowdsale ultimately gets and sends its tokens.\n     * @param _beneficiary Address performing the token purchase\n     * @param _tokenAmount Number of tokens to be emitted\n     */\n    function _deliverTokens(address _beneficiary, uint256 _tokenAmount)\n        internal\n    {\n        token.transfer(_beneficiary, _tokenAmount);\n    }\n\n    /**\n     * @dev Override to extend the way in which busd is converted to tokens.\n     * @param _busdAmount Value in wei to be converted into tokens\n     * @return Number of tokens that can be purchased with the specified _busdAmount\n     */\n    function _getTokenAmount(uint256 _busdAmount)\n        internal\n        view\n        returns (uint256)\n    {\n        return _busdAmount.div(investorMinCap).mul(rate);\n    }\n\n    function busdToToken(uint256 _busdAmount) public view returns (uint256) {\n        return _getTokenAmount(_busdAmount);\n    }\n\n    /**\n     * @dev Determines how BUSD is stored/forwarded on purchases.\n     */\n    function _forwardFunds(uint256 _busdAmount) internal virtual {\n        tokenBUSD.transferFrom(msg.sender, wallet, _busdAmount);\n    }\n}\n",
  "sourcePath": "C:/Users/Isaac/Documents/ProgrammingLanguagesProjects/fiverr_dave_600/truffle_contracts/contracts/Presale.sol",
  "compiler": {
    "name": "solc",
    "version": "0.6.8+commit.0bbfe453.Emscripten.clang"
  },
  "schemaVersion": "3.3.2",
  "updatedAt": "2021-02-20T13:33:22.627Z",
  "networkType": "ethereum",
  "devdoc": {
    "methods": {
      "buyTokens(address,uint256)": {
        "details": "low level token purchase ***DO NOT OVERRIDE***",
        "params": {
          "_beneficiary": "Address performing the token purchase"
        }
      },
      "capReached()": {
        "details": "Checks whether the cap has been reached.",
        "returns": {
          "_0": "Whether the cap was reached"
        }
      },
      "endPresale()": {
        "details": "Allows admin to end the presale"
      },
      "getUserContribution(address)": {
        "details": "Returns the amount contributed so far by a sepecific user.",
        "params": {
          "_beneficiary": "Address of contributor"
        },
        "returns": {
          "_0": "User contribution so far"
        }
      },
      "owner()": {
        "details": "Returns the address of the current owner."
      },
      "renounceOwnership()": {
        "details": "Leaves the contract without owner. It will not be possible to call `onlyOwner` functions anymore. Can only be called by the current owner.     * NOTE: Renouncing ownership will leave the contract without an owner, thereby removing any functionality that is only available to the owner."
      },
      "transferOwnership(address)": {
        "details": "Transfers ownership of the contract to a new account (`newOwner`). Can only be called by the current owner."
      }
    }
  },
  "userdoc": {
    "methods": {}
  }
}